:020000040800F2
:10000000C05A002029BC0008B91A0008CD1B0008FE
:10001000151D0008311D00084D1D000800000000DE
:10002000000000000000000000000000691D000842
:10003000831D00080000000083BF0008E7BE000821
:100040004DBC00084DBC00084DBC00084DBC00086C
:100050004DBC00084DBC00084DBC00084DBC00085C
:100060004DBC00084DBC00084DBC00084DBC00084C
:100070004DBC0008B94300085D440008B3440008C3
:100080000B440008BD3A00084DBC00084DBC0008F8
:10009000C90F00084DBC00084DBC00084DBC00084D
:1000A0004DBC0008291200084DBC00084DBC0008DA
:1000B000CF110008BF1200080F1300084DBC000844
:1000C0004DBC00084DBC00084DBC00084DBC0008EC
:1000D0004DBC0008E91500081F160008EB170008C2
:1000E0004DBC00084DBC00084DBC00084DBC0008CC
:1000F0005B1200084DBC00084DBC0008DB3A00084C
:100100004DBC00084DBC00088D1200084DBC000815
:1001100041130008111A00084DBC00084DBC00082E
:100120004DBC00084DBC0008FD44000841450008D6
:100130004DBC00084DBC00084DBC00084DBC00087B
:10014000DD1000084DBC00084DBC00084DBC000887
:100150004DBC0008FF3A00089F3A00082735000808
:100160004DBC00084DBC00084DBC00084DBC00084B
:100170004DBC00084DBC00084DBC00084DBC00083B
:100180004DBC00084DBC000800F002F800F060F81B
:100190000AA090E8000C82448344AAF10107DA45E2
:1001A00001D100F055F8AFF2090EBAE80F0013F0D4
:1001B000010F18BFFB1A43F001031847982E0100E6
:1001C000B82E010010F8013B0A4413F0030408BFE5
:1001D00010F8014B1D1108BF10F8015B641E05D01B
:1001E00010F8016B641E01F8016BF9D1002D15D0D8
:1001F00010F8014B03F00C030C2BA1EB04040ABF15
:1002000010F8013BA4EB8314A4EB032405F10103D4
:1002100014F8016B5B1E01F8016BF9D5914238BFF0
:1002200010F8013BD1D3704700230024002500269D
:10023000103A28BF78C1FBD8520728BF30C148BF49
:100240000B6070471FB512F038FE1FBD10B510BD12
:1002500011F0A4FF1146FFF7F5FF00F01DF811F0B3
:10026000C2FF03B4FFF7F2FF03BC11F0C5FF0000AB
:10027000184800686421B0FBF1F420460BF044FEFE
:100280000CF028FC00F0D4FB00BF00231A4601212B
:1002900018460EF037FDF8E710B586B000BF0BF03A
:1002A00097FE0CF012FB032000214FF480720A4BE2
:1002B000CDE90132CDE903100A200346074A009038
:1002C00007480EF093F904460CF0ECFB002006B052
:1002D00010BD000064140020F0140020EC18002071
:1002E000710200081FB5FC480068FC490968FCA2BF
:1002F0004FF4C873CDE90032CDE90210FB4BFC4A44
:10030000FC49FD4803F0BFFD1FBD08B59DF8000086
:1003100000906A460021F94800680EF00BF8F84892
:1003200001F052FE002427E06A460021F3480068ED
:100330000DF0EAFE6A460021F04800680DF0FAFF71
:100340000020E5490860E5480068401CE349086072
:10035000641C41F64C50844200DD044606F032F93C
:1003600006F079F809F08CFA06F0E5FA06F03EFEA0
:1003700006F047FEFFF7B6FFD6E700B589B0D648CE
:100380000068D6490968D6A24FF4C873CDE9003297
:10039000CDE90210D54BD64AD649D74803F073FDB4
:1003A000D8480068D7498968D74A92ED040ABDEE5B
:1003B000C00AD64AD2ED000AFDEEE00ACDED020AEF
:1003C0008DED030ACDE90410D1A04FF4C871C74BDD
:1003D000C74ACDE90010C749C74803F054FDD048CB
:1003E00090ED000ADFEDCF0A20EE200ABDEEC00A34
:1003F000CD48D0ED020A9FEDCB1A60EE810AFDEEEA
:10040000E00A90ED001ADFEDC71A21EE211ABDEEC9
:10041000C11AD0ED011AFDEEE11ACDED021A8DEDF3
:10042000031ACDED040A8DED050AC0A04FF4C87182
:10043000AE4BAF4ACDE90010AE49AF4803F023FD03
:10044000BE4890ED000ADFEDB70A20EE200AFDEE6F
:10045000C00ABB4890ED000A9FEDB21A20EE010AD7
:10046000BDEEC01AB74890ED000ADFEDAE1A20EEDF
:10047000210ABDEEC00AB448D0ED001A9FEDA92AAA
:1004800061EE821AFDEEE11ACDED041A8DED050A3A
:100490008DED061ACDED070AAC4890ED000ADFEDB0
:1004A000A10A20EE200ABDEEC00AA948D0ED000A3C
:1004B0009FED9C1A60EE810AFDEEE00AA5A04FF4C4
:1004C000C871CDE90010CDED020A8DED030A874B0E
:1004D000874A8849884803F0D6FCA4A04FF4C87125
:1004E000824B834ACDE900108249834803F0CBFC5C
:1004F00009B000BD2DED048B82B09DF80400019081
:1005000001AA00217D4800680DF014FFC6E001AA91
:1005100000217A4800680DF0F7FD01AA0021774814
:1005200000680DF007FF00206B4908606B48006809
:10053000401C6A49086006F045F87B4890ED010AC6
:100540008B48D0ED000A30EE600ADFED8A0A60EEDB
:10055000200A9FED891A80EE810ADFED880A80EE7D
:10056000201A714880ED021A90ED010A804880ED52
:10057000000A6D4890ED000A10EE101A084612F0BD
:100580002BFC41EC190BB0EE490AF0EE690A11F0B0
:1005900075FFB0EE408AF0EE608A9FED790B53EC68
:1005A000102B51EC180B12F0F7FA09D955480468D2
:1005B000002C01DB204600E06042B0F5703F1BDDFF
:1005C0000020714908707148007801280BDA6F48E3
:1005D0000078401C6D4908700023012219466C48C0
:1005E00004F020F802E00420684908709FED690AD1
:1005F000454880ED040A4BE04B4890ED000A10EEB0
:10060000101A084612F0E8FB41EC190BB0EE490A4B
:10061000F0EE690A11F032FFB0EE408AF0EE608A27
:100620009FED570B53EC102B51EC180B12F07AF98D
:100630002ED20020554908705348007801280BDA63
:1006400051480078401C5049087001231A46002187
:100650004F4803F0E7FF02E004204B490870B2EE78
:10066000081ADFED4C0A9FED4C0A0AF0DDFEDFEDC3
:100670004B0A20EE208ADFED4A0A9FED4A0A0AF073
:100680004FFFDFED490A00EE808A1F4880ED048AA3
:1006900006F0ACFC06F0B5FCFFF76FFE37E7434809
:1006A0000068B0F57A7F0EDA41480068B0F57A7FCD
:1006B00009DA40480068B0F57A7F04DA3E480078ED
:1006C000401C3D4908703C480078322877DD002006
:1006D00039490870012070471C00002020000020CC
:1006E000542025642025642000000000BC2E00203A
:1006F000CE0000202C2D002000100140080000201A
:10070000FFFBAC064C300020F432002044000020F7
:10071000573120256420256420256420256420008D
:10072000401400200000C8424836002041202564C3
:10073000202564202564202564200000600000201E
:100740005C000020580000205400002050000020D1
:100750004C0000205020256420256420256420259D
:100760006420256420256420000000000D0A00009C
:1007700048000020DB0F4940000034430AD7233CE7
:100780000000000000003440420000204000002033
:10079000006400400000000000002C423333733F2F
:1007A000A69B443B17B7513A295C8F3E1831002075
:1007B0005C310020A031002076000020FFE70020FF
:1007C000704710B5FC48007820B1012809D00228F4
:1007D00028D110E0FFF763FF012801D1F649087026
:1007E00020E005F014FF012802D10220F249087030
:1007F00005F085FE16E00020EF4908700023012275
:100800001946EE4803F0C7FF002303221946EB48C0
:1008100003F0C1FF002305221946E84803F0BBFF9F
:10082000012010BD00BF0020FBE7704710B5E44871
:1008300001F0CAFB10BD08B500200123532263213B
:100840000090980701F0C5FB00214FF080400FF0A9
:1008500023FC00200123532263210090D94801F09A
:10086000B8FB4FF46123D84AD849D94803F074F84B
:100870004FF4612001F0F0FF4FF4612001F040FFE0
:100880004FF4612002F094F84FF400704310D14A05
:100890004FF4FA710090C94802F00AFA4020202370
:1008A000CC4A4FF4FA710090CB4802F001FA02F002
:1008B0002FFC03F0C7FB03F06DFB00220121C748AA
:1008C00001F0BCFA00220221C44801F0B7FA00226C
:1008D0000421C24801F0B2FA00220821BF4801F009
:1008E000ADFA00221021BD4801F0A8FA0122202112
:1008F000BA4801F0A3FA01221103B84801F09EFAA8
:100900002021B6480EF01AFF4FF48051B3480EF084
:1009100015FF09F0F5F8B24801F056FB08BD0EB519
:100920009DF8080002904FF4A0600FF00FFAFFF757
:1009300082FFFFF77BFFFFF778FF02AA0021A9489B
:1009400000680DF0F7FC62E002AA0021A5480068EB
:100950000DF0DAFB02AA0021A24800680DF0EAFCC3
:1009600005F030FE06F04DFB01209F4981F8E800BC
:10097000002081F8F100084690F8E80028B9FFF758
:1009800020FF994981F8E80041E0974890F8F1008C
:1009900001281BD19FED950A934880ED000A9FED39
:1009A000940A80ED060A9FED910A80ED0C0A9FEDF6
:1009B000910A80ED010A1FED890A80ED070A9FED7B
:1009C0008E0A80ED0D0A05F09AFD20E0864890F829
:1009D000F100022803D10C200EF068F818E08248DC
:1009E00090F8F100032812D07F4890F8F10070B918
:1009F00082A04FF4C871754B824ACDE9001082493C
:100A0000734803F040FA14200EF050F800E09BE722
:100A100000BF012188070FF03FFB002169480FF05C
:100A20003BFB7A4801F0D0FAFF200EF03FF80EBDF4
:100A300010B500BF00200DF0D5FA75490860002000
:100A40000DF0D0FA674908600B23724A0021724802
:100A50000DF071FD04460C23704A002170480DF022
:100A60006AFD044614236F4A00216F480DF063FDB0
:100A7000044610BD7047704700B587B06B480068EA
:100A8000594991ED040ABDEEC00AD1ED020AFDEE0E
:100A9000E00A91ED001ABDEEC11A8DED021ACDEDFE
:100AA000030A8DED040A059061A04FF4C871474B0D
:100AB000544ACDE900105449454803F0E4F907B021
:100AC00000BD00B58BB0484890EDA60A5FEDEB0A7B
:100AD00020EE200ABDEEC00A5A48D0ED000A1FEDF4
:100AE000EF1A60EE810AFDEEE00A5748806A642141
:100AF000484355490969CDE90610CDED080A8DED49
:100B0000090A514800684142374890ED2D0ABDEE70
:100B1000C00A4D48406840424C4A1278CDE9022054
:100B20008DED040A4AA005914FF4C871274B354A50
:100B3000CDE900103449264803F0A5F90BB000BDFB
:100B400010B54B480078401C40B24949087008462F
:100B500090F90000642801DD64200870444890F991
:100B600000000A2801DD012010BD00201E4981F887
:100B7000F100022119480EF0C7FD012805D13D48BA
:100B80000078401C3B49087002E000203949087099
:100B900038480078082803DB0120134981F8F10068
:100BA00004210E480EF0B0FD012868D132480078CB
:100BB000401C3149087065E0750000200064004069
:100BC000FFEFB31A0004004003290008BC2E0020E8
:100BD000001001400004024000680040000802408C
:100BE0007FB92A000C000020F43200200000FA43F4
:100BF0000000FAC3000070C200007042636F6E66AE
:100C000069672000CE0000202C2D0020FF7D5603B8
:100C100008000020EC1C00201F090008EC24002024
:100C2000F5040008EC2C00200B0300084C300020D9
:100C300052453A2057312025642025642025642020
:100C400025642000303600206C320020090100208D
:100C50004153202564202564202564202564202517
:100C600064202564206F2025642025642000000076
:100C7000770000207800002079000020FFE70020A6
:100C8000C1490870C0480078082803DB0220BF492A
:100C900081F8F100002067E710B5BD480078401CDE
:100CA00040B2BB4908700821BA480EF02DFD01285A
:100CB00005D1B9480078401CB749087002E000200F
:100CC000B5490870B4480078082803DB0420AF4910
:100CD00081F8F100012010BD10B5AC4890ED200A5C
:100CE000F2EE0E0AB4EEE00AF1EE10FA08D29FED31
:100CF000AB0A80ED2D0A4FF48051A9480EF020FD7B
:100D000010BD10B5A14890F8C70001281AD19F481E
:100D100090F8EF00022815DD4FF4A03302220021E5
:100D2000A04803F065FF4FF4A033042200219D4842
:100D300003F05EFF4FF4A03306220021994803F030
:100D400057FF18E0914890F8C700A0B94FF420432E
:100D500002220021934803F04BFF4FF4204304226A
:100D60000021904803F044FF4FF420430622002165
:100D70008C4803F03DFF10BD844890F8C80001285E
:100D800004D189480068401C87490860864800688B
:100D90001E2806DD00208449086000217B4880F879
:100DA000C810704710B5794890F88D02002847D0D8
:100DB000764890F89102012842D1744890ED350AA6
:100DC0007A48D0ED000AB4EE600AF1EE10FA05D1CF
:100DD00077480068401C7649086002E000207449AA
:100DE000086073480068C8280DDD06220F2171488D
:100DF00005F07AF90120654981F8A4024FF4B47036
:100E00006B49086030E06A480068C8282CDC5F48FD
:100E100090F8EE00012827D15C4890F8F3000128F3
:100E200007D002280BD102220F21624805F05CF99D
:100E300005E001220F215F4805F056F900BF13E0DD
:100E4000524890F8F300012807D002280BD1022263
:100E50000F21584805F048F905E001220F215548B7
:100E600005F042F900BF00BF484890F8C4000128CF
:100E700004D0464890F85400012804D103220F21E1
:100E80004C4805F031F9414890F8EC00012805D1B3
:100E900004220F21474805F027F921E03B4890F84C
:100EA000EF002C281CD144480068401C42490860CF
:100EB00008460068642190FBF1F201FB12003E49F4
:100EC000086008460068322805DA04220F213948F4
:100ED00005F00AF904E005220F21364805F004F96F
:100EE0002A4890F8EE0020B905220F21314805F07C
:100EF000FBF8264890ED350A2C4880ED000A10BD1D
:100F000010B5002003E000212C4A1154401C052894
:100F1000F9DB1E4AB2F88602002109E01B4AB2F84A
:100F20008632F43212F82320244B5A54401C491CB8
:100F3000164AB2F88622521D824204DD134AB2F8E4
:100F400084228242EADC1E480068401C1C4908607A
:100F500008460068642190FBF1F201FB1200184979
:100F60000860084600680A2190FBF1F201FB1200BC
:100F700048B91448D0ED000AB0EE600A0AF0D4F87F
:100F80000E480AF020FA10BD79000020F43200204B
:100F90007A000020000802407B00002000000000D2
:100FA00000040240006400407C000020800000201B
:100FB00084000020006800408800002070000020AD
:100FC0006C000020303600207FB50AF0B9FF0546DE
:100FD000F8480078401CF749087028460AF0B4FF2A
:100FE00000240020039002900090019002AB6A461A
:100FF00003A9F14802F060F80398A0F52070C4B28C
:10100000072C3BD2DFE804F03A041F0D281631000C
:101010006946EA4804F0B9FE0020E949A1F8480011
:101020002CE06946E74804F0B0FE0021E448A0F84F
:101030004A1023E06946E44804F0A7FE0021E04896
:10104000A0F84C101AE06946E04804F09EFE00212A
:10105000DB48A0F84E1011E06946DD4804F095FE2B
:101060000021D748A0F8501008E06946D94804F09C
:101070008CFE0021D248A0F8521000BF00BFD64914
:10108000CD4810F02CFBD449491CCB4810F027FB6D
:10109000D149C91CC84810F022FBD049C64810F0FD
:1010A0001EFBCF49C44810F01AFBCE49C24810F0CD
:1010B00016FBCC490831C04810F011FBCA49BE48A4
:1010C00010F00DFBC949BC4810F009FBC7490831B5
:1010D000B94810F004FB0BF022FC7FBD7FB50AF08D
:1010E0002FFF0546B3480078401CB24908702846D7
:1010F0000AF02AFF00200390029000900190002443
:1011000002AB6A4603A9BA4801F0D6FF0398A0F5DE
:101110002070C4B2072C06D0082C0DD0092C1DD08D
:101120000A2C24D111E00021A548A0F8BE10694680
:10113000B04804F02AFE1AE00021A148A0F8C0102F
:101140006946AD4804F021FE11E000219C48A0F85A
:10115000C2106946A94804F018FE08E0002198482A
:10116000A0F8BC106946A64804F00FFE00BF00BFFF
:1011700099499F4810F0B3FA9749491C9C4810F0D0
:10118000AEFA9549C91C9A4810F0A9FA93499848B3
:1011900010F0A5FA9249964810F0A1FA91499448A6
:1011A00010F09DFA8F490831914810F098FA8E4955
:1011B0008F4810F094FA8D498D4810F090FA8B49C1
:1011C00008318B4810F08BFA0BF0A9FB7FBD10B5EE
:1011D0000AF0B6FE044677480078401C754908704E
:1011E00020460AF0B1FE012188070FF084FB012898
:1011F00017D184480088401E8249088082480068D0
:10120000401C814908607F48008830B97F480068E9
:101210000DF035F864207B490880012188070FF024
:101220007BFB0BF07CFB10BD10B50AF089FE044679
:1012300060480078401C5F49087020460AF084FE30
:10124000012173480FF057FB012803D10121704899
:101250000FF062FB0BF063FB10BD10B50AF070FEDF
:10126000044654480078401C5249087020460AF051
:101270006BFE012167480FF03EFB012803D10121DD
:1012800064480FF049FB0BF04AFB10BD10B50AF0A3
:1012900057FE044647480078401C464908702046DF
:1012A0000AF052FE01215C480FF025FB012803D112
:1012B000012159480FF030FB0BF031FB10BD10B588
:1012C0000AF03EFE04463B480078401C394908704D
:1012D00020460AF039FE012150480FF00CFB01288E
:1012E00012D14F480088401E4D49088008460088AA
:1012F00030B94C4800680CF0C2FF642048490880AF
:10130000012146480FF008FB0BF009FB10BD10B59A
:101310000AF016FE044627480078401C254908704C
:1013200020460AF011FE01213F480FF0E4FA01289F
:1013300003D101213C480FF0EFFA0BF0F0FA10BD99
:1013400010B50AF0FDFD04461A480078401C194902
:10135000087020460AF0F8FD40F2255133480FF09E
:1013600090FD012825D140F2255130480FF0C0FDF5
:101370002E480FF0DAFC2E4908702E48007820B174
:10138000012865D0022862D17EE0294800784128F2
:1013900056D127480178284802680068401C264B2F
:1013A00018602648815423480078401C2149087061
:1013B0004DE0DEE099140020006400404C30002035
:1013C000F432002090300020D4300020183100206A
:1013D0005C310020A03100200100F0107000F030DE
:1013E000030000120800003203000014080000345B
:1013F000006800406C32002028320020B03200200B
:10140000E4310020A80000201C000020080000207B
:101410000000014000040140000C004000040040B6
:10142000AA0000200C00002000080040004C0040F2
:10143000AC000020AE00002094000020F02C002022
:101440000020FB4908700C21FA4808F04AFA26E00F
:10145000F948007854280FD1F7480178F748026816
:101460000068401CF54B1860F2488154F048007841
:10147000401CEF49087006E00C21EE4808F031FAF4
:101480000020EB4908700AE0EB480178EB4802685D
:101490000068401CE94B1860E648815400BF00BF5B
:1014A000E748007810B1012856D119E0E3480068F8
:1014B000022814D1DF480078412807D1DD48407860
:1014C000542803D10120DE49087008E00C21D948D6
:1014D00008F007FA0020D9490860D549087047E0AC
:1014E000D64800680C2836D1D248807A742823D197
:1014F000D048C07A61281FD1002005E0811CCD4A68
:10150000515CD04A1154401C0428F7DBCD4890EDC3
:10151000000ACD4880ED000A002005E0811DC54A83
:10152000515CC84A1154401C0428F7DBC54890EDB3
:10153000000AC54880ED010A0C21BE4808F0D1F927
:101540000421C04808F0CDF90020BD490870B84911
:101550000870BA4908600BE00C21B64808F0C1F9E0
:101560000020B7490870B2490870B449086000BF4C
:1015700037E02821B5480FF0BBFC40F22771B34893
:101580000FF0B6FC40F22661B0480FF0B1FC40F21B
:101590002531AE480FF0ACFC40F22441AB480FF0CF
:1015A000A7FC40F64601A9480FF0A2FC40F66A11DC
:1015B000A6480FF09DFC6021A4480FF099FC4FF461
:1015C0005871A2480FF094FC4FF418719F480FF027
:1015D0008FFC4FF4B0719D480FF08AFC9B480FF0D0
:1015E000A4FB0BF09CF910BD10B50AF0A9FC044651
:1015F00097480078401C9649087020460AF0A4FCE1
:1016000040F2255193480FF03CFC012804D140F2F0
:10161000255190480FF06CFC0BF081F910BD10B50E
:101620000AF08EFC04468A480078401C88490870FD
:1016300020460AF089FC40F2255187480FF021FC32
:1016400001287DD140F2255183480FF051FC82489A
:101650000FF06BFB814908700846017877480268F3
:101660000068401C754B1860724881547C480078B3
:1016700010B101287DD117E07048006802280BD115
:101680006C48007841280ED16A48407854280AD125
:1016900001207349087006E00A21664808F021F924
:1016A00000206649086000BF6448006806285FD1D2
:1016B000604800790D2852D15E4840790A284ED101
:1016C0005C48807832280BD15A48C078422807D12C
:1016D00002206449A1F888020120A1F88A023EE0B4
:1016E0005448807831280BD15248C078412807D11E
:1016F00004205C49A1F888020120A1F88A022EE0AA
:101700004C48807831280BD14A48C078422807D10C
:1017100003205449A1F888020120A1F88A021EE0A2
:101720004448807833280CD14248C078332808D107
:1017300005204C49A1F888020120A1F88A020EE098
:1017400018E03C488078322809D13A48C0784128CE
:1017500005D101204349A1F88802A1F88A02062197
:10176000344808F0BEF800203D490870334908604D
:1017700000BF37E0282138480FF0BAFB40F227714C
:1017800035480FF0B5FB40F2266133480FF0B0FB4F
:1017900040F2253130480FF0ABFB40F224412E4897
:1017A0000FF0A6FB40F646012B480FF0A1FB40F6D8
:1017B0006A1129480FF09CFB602127480FF098FB25
:1017C0004FF4587124480FF093FB4FF418712248DE
:1017D0000FF08EFB4FF4B0711F480FF089FB1E48CD
:1017E0000FF0A3FA0BF09BF810BD10B50AF0A8FBA0
:1017F000044617480078401C1549087020460AF036
:10180000A3FB40F2255118480FF03BFB012876D18D
:1018100040F2255114480FF06BFB13480FF085FA86
:101820001249087012480078052869D222E00000A9
:10183000AE000020F02C0020AC000020940000201E
:10184000AD0000209800002048360020004C0040E9
:10185000991400200010014000440040AF00002017
:10186000B0000020F432002000480040B800002002
:10187000B9000020DFE800F003111F455300FE48C7
:101880000078412805D1FD480078401CFB490870CC
:1018900002E00020F94908707EE0F74800785428FB
:1018A00005D1F6480078401CF449087002E0002099
:1018B000F249087070E0F0480078062818D2DFE896
:1018C00000F01703070B0F130120ED4908600FE02C
:1018D0000220EB4908600BE00320E949086007E0BB
:1018E0000420E749086003E00520E549086000BFDF
:1018F00000BFE2480078401CE04908704CE04CE032
:1019000046E0DD4800780D2805D1DC480078401C11
:10191000DA49087002E00020D84908703CE0D64857
:1019200000780A2830D1D648006806282BD2DFE894
:1019300000F02A030A121A220120D249A1F88802D3
:10194000A1F88A021FE00220CE49A1F888020120F6
:10195000A1F88A0217E00320CA49A1F888020120F1
:10196000A1F88A020FE00420C649A1F888020120EC
:10197000A1F88A0207E00520C249A1F888020120E7
:10198000A1F88A0200BF00BF0020BC49087003E034
:101990000020BA49087000BF37E02821BA480FF08C
:1019A000A7FA40F22771B8480FF0A2FA40F2266178
:1019B000B5480FF09DFA40F22531B3480FF098FA80
:1019C00040F22441B0480FF093FA40F64601AE4889
:1019D0000FF08EFA40F66A11AB480FF089FA6021D9
:1019E000A9480FF085FA4FF45871A7480FF080FA14
:1019F0004FF41871A4480FF07BFA4FF4B071A2486D
:101A00000FF076FAA0480FF090F90AF088FF10BDA9
:101A100010B50AF095FA04469C480078401C9B4992
:101A2000087020460AF090FA40F2255198480FF0CD
:101A300028FA012805D140F2255195480FF058FAAF
:101A400037E0282192480FF053FA40F2277190486E
:101A50000FF04EFA40F226618D480FF049FA40F23D
:101A600025318B480FF044FA40F2244188480FF0AA
:101A70003FFA40F6460186480FF03AFA40F66A11FE
:101A800083480FF035FA602181480FF031FA4FF4A6
:101A900058717F480FF02CFA4FF418717C480FF002
:101AA00027FA4FF4B0717A480FF022FA78480FF015
:101AB0003CF90AF034FF10BD1CB50AE075A04FF4E4
:101AC000C871784B784ACDE900107849784802F01F
:101AD000DAF9F3E770B52DED028B86B005460E46B8
:101AE000B0EE408A142273A101A810F01EFB344608
:101AF000002059E0B0EE000AC8EE000AB6EE000A77
:101B000030EE800ABDEEC00AB8EEC00AF0EE000A60
:101B100020EE200AB4EEC80AF1EE10FA01DD00282A
:101B200014DCF0EE000A88EE200AF6EE000A30EE31
:101B3000200ABDEEC00AB8EEC00AF0EE000A20EEA0
:101B4000200AB4EE480AF1EE10FA15D1F0EE000AC0
:101B500088EE200AF6EE000A30EE200ABDEEC00A3A
:101B600010EE101A2944091A11F8011C01AA02EBFF
:101B70002111097804F8011BB0EE000AC8EE000A32
:101B8000B6EE000A30EE800ABDEEC00A10EE101A62
:101B90002944091A11F8011C01F00F0101AA515C36
:101BA00004F8011B411CC8B2B0EE000AC8EE000ADE
:101BB000B6EE000A30EE800ABDEEC00A10EE101A32
:101BC000814297DC06B0BDEC028B70BD1FB504F0FE
:101BD0003AFC00BFEFF3098028B100BFEFF30980A2
:101BE0003949086004E000BFEFF308803649086017
:101BF000354800681030344908600020039033A055
:101C000033A14FF4C872274BCDE900210290264A38
:101C10002649274802F037F9032429E02A490968B0
:101C2000214401F11C00B0EE000A03A9FFF752FFA6
:101C300003A827A14FF4C8721A4BCDE900210290E6
:101C4000194A1A491A4802F01EF9E11704EB91717A
:101C50008910A4EB810151B91EA04FF4C871114B3A
:101C6000114ACDE900101149114802F00CF9641E27
:101C700014F11C0FD2DA2FE0B8000020B9000020C8
:101C8000B4000020F43200200048004099140020E5
:101C9000005000404E4D4920457863657074696F6F
:101CA0006E212000BC2E0020CE0000202C2D002014
:101CB0000010014030313233343536373839414243
:101CC0004344454600000000BC000020307800007E
:101CD000257300000D0A0000AFF208004FF4C87130
:101CE0002E4B2F4ACDE900102E492F4802F0CBF899
:101CF0000FE02EA04FF4C871284B294ACDE90010FF
:101D00002849294802F0BFF804F09DFB2B4800F059
:101D10005BF9EEE71CB50AE029A04FF4C8711F4B30
:101D20001F4ACDE900101F491F4802F0ACF8F3E745
:101D30001CB50AE029A04FF4C871184B184ACDE928
:101D400000101849184802F09EF8F3E71CB50AE0A5
:101D500028A04FF4C871114B114ACDE90010114968
:101D6000114802F090F8F3E71CB528A04FF4C871B1
:101D70000A4B0B4ACDE900100A490B4802F083F8E0
:101D80001CBD1CB526A04FF4C871044B044ACDE914
:101D900000100449044802F076F81CBDBC2E002057
:101DA000CE0000202C2D00200010014048617264FC
:101DB000204661756C740D0A000000007F8B0800DE
:101DC0004D656D6F7279204D616E61676520457854
:101DD00063657074696F6E21200000004275732086
:101DE0004661756C7420457863657074696F6E2107
:101DF000200000005573616765204661756C742092
:101E0000457863657074696F6E2120005356436195
:101E10006C6C20457863657074696F6E21200000DA
:101E20004465627567204D6F6E69746F72204578E6
:101E300063657074696F6E21200000007CB50446F4
:101E40000D461646C4F30900002839D1A012A0F5AA
:101E500080108038092833D2DFE800F0050A0F141B
:101E6000191E23282D00012108460DF031FE28E01F
:101E7000012102200DF02CFE23E0012104200DF0B1
:101E800027FE1EE0012108200DF022FE19E00121AD
:101E900010200DF01DFE14E0012120200DF018FE91
:101EA0000FE0012140200DF013FE0AE00121802007
:101EB0000DF00EFE05E0012108020DF009FE00E024
:101EC00000BF00BF00958DF8046000208DF806006B
:101ED0008DF8070002208DF80500694620460DF0B8
:101EE000B1FB7CBD7CB504460D461646C4F3090023
:101EF000002839D1A012A0F580108038092833D2EB
:101F0000DFE800F0050A0F14191E23282D00012117
:101F100008460DF0DDFD28E0012102200DF0D8FD7E
:101F200023E0012104200DF0D3FD1EE00121082053
:101F30000DF0CEFD19E0012110200DF0C9FD14E0D7
:101F4000012120200DF0C4FD0FE0012140200DF003
:101F5000BFFD0AE0012180200DF0BAFD05E001215E
:101F600008020DF0B5FD00E000BF00BF00958DF840
:101F7000046000208DF8060001208DF80700022083
:101F80008DF80500694620460DF05CFB7CBD70476E
:101F9000704770471CB5012108460DF099FD0820D7
:101FA000009000208DF804008DF8060001208DF8C7
:101FB000070002208DF80500694602480DF042FB3B
:101FC0001CBD00000000024000BF401E0028FCD1E4
:101FD00070472DE9FF4104460D4616461F46DDF8C1
:101FE0002880F949601A8C4270D01ADCF749A4EBBA
:101FF00001008C426CD00ADCB4F1804F4ED0F44822
:102000002044002852D0B0F5806F71D156E0B0F571
:10201000806F65D0B0F5006F6CD0B0F5406FF4D133
:1020200070E0B0F5923F21D009DCB0F5806F7AD036
:10203000B0F5644F0AD0B0F5684F7CD10EE0B0F532
:10204000943F1BD0B0F5963F75D11FE001210846A3
:102050000DF082FD19208DF800006DE001210220B5
:102060000DF07AFD2C208DF8000065E001210804B8
:102070000DF072FD18208DF800005DE0012119209F
:102080000DF06AFD2C208DF8000055E00121880438
:102090000DF062FD1A208DF800004DE00121084688
:1020A0000DF049FD1C208DF8000045E001210220C3
:1020B0000DF041FD1D208DF800003DE001210420C0
:1020C0000DF039FD1E208DF8000035E023E0FFE71C
:1020D000012108200DF02FFD32208DF800002BE0AB
:1020E000012110200DF027FD36208DF8000023E09F
:1020F00021E0FFE7012120200DF01DFD37208DF8A4
:10210000000019E0012140200DF015FD2B208DF875
:10211000000011E007E0012180200DF00CFD2C20D3
:102120008DF8000008E0012108020DF004FD2D20CB
:102130008DF8000000E000BF00BF0295ADF804601C
:102140000020ADF80C00ADF8060001A920460DF006
:102150001AFF012120460EF0DFFB01221146204626
:102160000EF0B2FBF8B28DF8010008F0FF008DF818
:10217000020001208DF8030068460DF0ECFD0121FE
:1021800020460DF089FFBDE8FF81FEB504460D46EF
:102190002E468D49601A8C4270D01ADC8B49A4EB14
:1021A00001008C426CD00ADCB4F1804F4ED08848DC
:1021B0002044002852D0B0F5806F71D156E0B0F5C0
:1021C000806F65D0B0F5006F6CD0B0F5406FF4D182
:1021D00070E0B0F5923F21D009DCB0F5806F7AD085
:1021E000B0F5644F0AD0B0F5684F7CD10EE0B0F581
:1021F000943F1BD0B0F5963F75D11FE001210846F2
:102200000DF0AAFCA820ADF800006DE0012102202D
:102210000DF0A2FCA820ADF8000065E00121080443
:102220000DF09AFCA820ADF800005DE00121480403
:102230000DF092FCA820ADF8000055E001218804C3
:102240000DF08AFCA820ADF800004DE00121084601
:102250000DF071FC5420ADF8000045E00121022092
:102260000DF069FC5420ADF800003DE00121042090
:102270000DF061FC5420ADF8000035E023E0FFE7ED
:10228000012108200DF057FC5420ADF800002BE090
:10229000012110200DF04FFC5420ADF8000023E088
:1022A00021E0FFE7012120200DF045FC5420ADF88E
:1022B000000019E0012140200DF03DFC5420ADF854
:1022C000000011E007E0012180200DF034FC5420D3
:1022D000ADF8000008E0012108020DF02CFC5420AC
:1022E000ADF8000000E000BF00BF01200190002019
:1022F000ADF80800ADF80200694620460DF043FE37
:10230000012120460DF0C8FE4FF6FF70811B2046CC
:102310000DF082FE03E020460DF082FE86B24FF6FD
:10232000FF708642F7DB002120460DF0B5FEFEBDB2
:10233000FEB504460D462E462349601A8C4276D0DF
:102340001ADC2249A4EB01008C427CD00ADCB4F1F7
:10235000804F5AD01E48204400285FD0B0F5806FCF
:1023600067D167E0B0F5806F79D0B0F5006F7FD0AE
:10237000B0F5406FF4D184E0B0F5923F2AD009DC8B
:10238000B0F5806F6AD0B0F5644F0AD0B0F5684FF1
:102390004FD10FE0B0F5943F25D0B0F5963F48D12E
:1023A0002AE0012108460DF0D7FB44F2A010ADF859
:1023B000000082E0012102200DF0CEFB44F2A010CB
:1023C000ADF8000079E00000001C0040000C004067
:1023D00000FCFFBF012108040DF0BEFB44F2A01079
:1023E000ADF8000069E0012148040DF0B5FB44F2AE
:1023F000A010ADF8000060E0012188040DF0ACFBF6
:1024000044F2A010ADF8000057E0012108460DF09D
:1024100092FB42F2D000ADF800004EE00121022014
:102420000DF089FB42F2D000ADF8000045E031E04C
:1024300009E041E0012104200DF07DFB42F2D000D3
:10244000ADF8000039E0012108200DF074FB42F2E4
:10245000D000ADF8000030E001E009E023E0012108
:1024600010200DF068FB42F2D000ADF8000024E02F
:10247000012120200DF05FFB42F2D000ADF80000FA
:102480001BE0012140200DF056FB42F2D000ADF8D8
:10249000000012E0012180200DF04DFB42F2D0003F
:1024A000ADF8000009E0012108020DF044FB42F202
:1024B000D000ADF8000000E000BF00BF0120019097
:1024C0000020ADF80800ADF80200694620460DF086
:1024D0005AFD012120460DF0DFFD4FF6FF70811BF4
:1024E00020460DF099FD03E020460DF099FD86B2DF
:1024F0004FF6FF708642F7DB002120460DF0CCFD41
:10250000FEBD70B506460C46002500BF04E00A215A
:102510003046FFF70DFF6D1CA542F8D370BD30B5F6
:102520008BB004460D46012102200DF004FB012171
:1025300002200DF0CDFA0222052164480DF00DF9BC
:102540002020099002208DF8280003208DF8290012
:1025500000208DF82A0001208DF82B0009A95B4886
:102560000DF070F8A8B2ADF818000020ADF81A0010
:102570000794ADF8200006A955480DF004FD602031
:10258000ADF804000120ADF806000020ADF8100001
:1025900001A94F480DF0C5FD08214D480DF01EFF63
:1025A00001214B480DF05AFD012149480DF074FD01
:1025B000642147480DF0D7FE0BB030BD30B58BB06D
:1025C00004460D46012104200DF0B5FA0121082032
:1025D0000DF07EFA02220C213E480DF0BEF80222D8
:1025E0000E213C480DF0B9F84FF4A04009900220AC
:1025F0008DF8280003208DF8290000208DF82A008E
:1026000001208DF82B0009A932480DF01BF8A8B263
:10261000ADF818000020ADF81A000794ADF82000BE
:1026200006A92D480DF0AFFC6020ADF80400012094
:10263000ADF806000020ADF8100001A926480DF005
:1026400037FD01A924480DF0B9FD082122480DF0FD
:10265000BCFE082120480DF0CEFE01211E480DF0E1
:10266000FDFC01211C480DF017FD64211A480DF0F6
:1026700078FE642118480DF078FE0BB030BD7FB5B0
:1026800005460C46012120200DF055FA0195ADF8C4
:1026900000400020ADF80800ADF8020069460F4880
:1026A0000DF071FC012211460C480EF00DF9372097
:1026B0008DF80C0000208DF80D0001208DF80E0023
:1026C0008DF80F0003A80DF046FB7FBD000402400B
:1026D00000040040000C02400008004000140040CC
:1026E00070B504460D46E1B2FE480EF008FB00BF8F
:1026F0004021FC480EF0F6FA0028F9D0204670BDC3
:1027000010B588B00446012104200DF0E1F9012143
:1027100088040DF010FA07220A21F3480DF01DF885
:1027200007220B21F0480DF018F84FF44060069096
:1027300002208DF81C008DF81D0000208DF81E0071
:1027400001208DF81F0006A9E7480CF07BFF0294DA
:102750000020ADF80C00ADF80E00ADF81000ADF89B
:1027600014000C20ADF8120002A9E0480EF0FEF9AA
:102770000121DE480EF082FA4021DC480EF0A9FA71
:10278000012240F22551D9480EF056FB27208DF842
:10279000040000208DF8050001208DF806008DF85A
:1027A000070001A80DF0D7FA08B010BD10B588B029
:1027B0000446012104200DF08BF9012120200DF0A9
:1027C000CBF908220621C8480CF0C7FF08220721D0
:1027D000C5480CF0C2FFC020069002208DF81C00F6
:1027E0008DF81D0000208DF81E0001208DF81F00BF
:1027F00006A9BD480CF026FF02940020ADF80C009D
:10280000ADF80E00ADF81000ADF814000C20ADF8D6
:10281000120002A9B6480EF0A9F90121B4480EF041
:102820002DFA4021B2480EF054FA012240F225510F
:10283000AF480EF001FB47208DF8040000208DF812
:10284000050002208DF8060001208DF8070001A880
:102850000DF081FA08B010BD10B588B00446012112
:1028600008460DF035F90121C8040DF064F908227D
:102870000021A0480CF071FF082201219D480CF0B6
:102880006CFF0320069002208DF81C008DF81D00BF
:1028900000208DF81E0001208DF81F0006A9954824
:1028A0000CF0D0FE02940020ADF80C00ADF80E0044
:1028B000ADF81000ADF814000C20ADF8120002A91C
:1028C0008D480EF053F940218B480EF002FA342067
:1028D0008DF8040000208DF8050001208DF8060019
:1028E0008DF8070001A80DF036FA012240F22551BB
:1028F00081480EF0A1FA01217F480EF0BFF908B01F
:1029000010BD10B588B00446012108460DF0E0F86E
:10291000012110200DF020F90722092175480CF043
:102920001CFF07220A2173480CF017FF4FF4C06008
:10293000069002208DF81C008DF81D0000208DF8F7
:102940001E0001208DF81F0006A96A480CF07AFECF
:1029500002940020ADF80C00ADF80E00ADF81000A8
:10296000ADF814000C20ADF8120002A963480EF077
:10297000FDF8402161480EF0ACF925208DF80400E7
:1029800000208DF8050002208DF8060001208DF84A
:10299000070001A80DF0DFF9012240F22551574848
:1029A0000EF04AFA012155480EF068F908B010BD42
:1029B00010B588B00446012108460DF089F80121C0
:1029C00048040DF0B8F8072202214A480CF0C5FE71
:1029D0000722032147480CF0C0FE0C20069002207D
:1029E0008DF81C008DF81D0000208DF81E000120C0
:1029F0008DF81F0006A93F480CF024FE0294002029
:102A0000ADF80C00ADF80E00ADF81000ADF81400F4
:102A10000C20ADF8120002A939480EF0A7F84021A9
:102A200037480EF056F926208DF8040000208DF866
:102A3000050002208DF8060001208DF8070001A88E
:102A40000DF089F9012240F225512D480EF0F4F9DC
:102A500001212B480EF012F908B010BD10B588B056
:102A6000044601940020ADF80800ADF80A00ADF866
:102A70000C00ADF810000C20ADF80E0001210DF097
:102A800027F8012108050DF056F816480EF020F839
:102A900008220C2114480CF060FE0822022119487B
:102AA0000CF05BFE00208DF81A0001208DF81B0051
:102AB00002208DF81800C002059002208DF8190040
:102AC00005A909480CF0BEFD02208DF8180004206D
:102AD000059005A90B480CF0B5FD01A901480EF0C1
:102AE00045F811E000500040000802400048004056
:102AF0000014014000000240004C00400010014062
:102B000000440040000C024035208DF81C000120DC
:102B10008DF81F008DF81D008DF81E004FF4A06089
:102B20000DF014F907A80DF016F9012240F2255115
:102B30005D480EF081F901215B480EF09FF808B066
:102B400010BDF0B503460D461646002729460A2E4D
:102B500003D0002008702846F0BD33B9302001F8BA
:102B6000010B002008702846F6E7002B03DA2D2021
:102B700001F8010B5B424D4A0DE0B3FBF2F404B9DE
:102B800037B104F1300001F8010B04FB12330127C7
:102B90000A20B2FBF0F2002AEFD10020087028468C
:102BA000DAE70FB470B586B006460CA8019073E062
:102BB0000B9800785C281CD10B98401C0B90007877
:102BC0006E2809D072280FD10D2130460EF097F8EB
:102BD0000B98401C0B900BE00A2130460EF08FF84A
:102BE0000B98401C0B9003E00B98401C0B9000BF0F
:102BF0004BE00B980078252840D10B98401C0B9097
:102C00000078642818D0732833D1019810C8019037
:102C10000BE0217830460EF072F800BF40213046BC
:102C20000EF060F80028F9D0641C20780028F0D15C
:102C30000B98401C0B9020E0019820C801900A22BC
:102C400002A92846FFF77DFF02AC0BE02178304651
:102C50000EF055F800BF402130460EF043F8002832
:102C6000F9D0641C20780028F0D10B98401C0B9000
:102C700003E00B98401C0B9000BF06E00B9810F887
:102C8000011B0B9030460EF03AF800BF4021304651
:102C90000EF028F80028F9D00B980078002887D18A
:102CA00006B070BC5DF814FB0050004000E1F50573
:102CB0002DE9F04F8BB006460F4614461D46DDF851
:102CC00050804FF00009CA46CB46B5F5807F43D00F
:102CD00012DC102D34D008DC012D25D0022D26D099
:102CE000042D27D0082D4FD127E0202D2BD0402DAB
:102CF0002CD0802D48D12CE0B5F5805F38D009DC90
:102D0000B5F5007F2BD0B5F5806F2BD0B5F5006FF2
:102D10003AD12AE0B5F5005F2DD0B5F5804F2DD022
:102D2000B5F5004F30D12CE04FF000092DE04FF009
:102D300001092AE04FF0020927E04FF0030924E0DF
:102D40004FF0040921E04FF005091EE04FF006099D
:102D50001BE04FF0070918E04FF0080915E04FF0AD
:102D6000090912E04FF00A090FE04FF00B090CE0DF
:102D70004FF00C0909E04FF00D0906E04FF00E0985
:102D800003E04FF00F0900E000BF00BFB8F5807FFF
:102D90004BD01ADCB8F1100F3BD00CDCB8F1010FAE
:102DA0002BD0B8F1020F2BD0B8F1040F2BD0B8F113
:102DB000080F52D12AE0B8F1200F2DD0B8F1400F02
:102DC0002DD0B8F1800F48D12CE0B8F5805F38D015
:102DD00009DCB8F5007F2BD0B8F5806F2BD0B8F5A3
:102DE000006F3AD12AE0B8F5005F2DD0B8F5804FDA
:102DF0002DD0B8F5004F30D12CE04FF0000A2DE077
:102E00004FF0010A2AE04FF0020A27E04FF0030AD0
:102E100024E04FF0040A21E04FF0050A1EE04FF0D5
:102E2000060A1BE04FF0070A18E04FF0080A15E009
:102E30004FF0090A12E04FF00A0A0FE04FF00B0AB8
:102E40000CE04FF00C0A09E04FF00D0A06E04FF0DD
:102E50000E0A03E04FF00F0A00E000BF00BFAB48CE
:102E6000304418B1B0F5806F1AD10CE04FF0090B67
:102E700000208DF8120014208DF80400012148066E
:102E80000CF059FE0DE04FF0090B0E208DF81200EA
:102E900040208DF80400012100050CF04CFE00E0FC
:102EA00000BF00BFC4F3090078BBA012A0F58010DA
:102EB0008038092834D2DFE800F0050A0F14191E03
:102EC00023292E00012108460CF002FE29E00121F1
:102ED00002200CF0FDFD24E0012104200CF0F8FD9F
:102EE0001FE0012108200CF0F3FD1AE00121102061
:102EF0000CF0EEFD15E0012120200CF0E9FD10E0C2
:102F0000012140200CF0E4FD0BE009E001218020CC
:102F10000CF0DEFD05E0012108020CF0D9FD00E017
:102F200000BF00BF5A46494620460CF016FC5A46E0
:102F3000514620460CF011FC45EA08000990022099
:102F40008DF828008DF8290000208DF82A00012036
:102F50008DF82B0009A920460CF074FB30460DF0CB
:102F6000D7FF00208DF81E0001208DF81F000020E3
:102F70008DF820008DF821008DF822008DF82300B7
:102F80008DF81A008DF81B000F208DF81C0003200F
:102F90008DF81D007D2F22D008DC0A2F0FD0142FB2
:102FA00011D0322F13D0642F29D114E0FA2F1AD068
:102FB000B7F5FA7F1BD0B7F57A7F20D11BE0C82088
:102FC000ADF818001CE06420ADF8180018E02820C7
:102FD000ADF8180014E01420ADF8180010E010202F
:102FE000ADF818000CE00820ADF8180008E0042047
:102FF000ADF8180004E00220ADF8180000E000BFB2
:1030000000BF06A930460DF09CFF00208DF813008C
:1030100001208DF814000020ADF80800ADF80A007A
:10302000ADF80C00ADF80E00ADF8100001208DF8E1
:10303000150002A80EF00FF800208DF805000320FF
:103040008DF8060001208DF8070001A80CF083FE22
:103050000122022130460EF0FDFA0BB0BDE8F08FE0
:103060002DE9F04385B081460D4690461E4600246A
:103070000095019500208DF808008DF809008DF865
:103080000A6000BF06E018F804100DF10B000155AE
:10309000601C84B2B442F6DB694648460EF0CAF8BA
:1030A0000746002400BF394648460EF05BF9012868
:1030B000F9D105B0BDE8F0832DE9F04186B0804636
:1030C0000D4616461F460024002140460EF02AFAFF
:1030D00018B9002006B0BDE8F08101AA00214046E1
:1030E0000EF09DF9002405E00DF10F00005D305554
:1030F000601CC4B29DF80E00A042F5DC0198286067
:103100009DF80E0038700120E4E70000009CFFBF2E
:1031100000B587B0012108460CF0DAFC0121080354
:103120000CF01AFD05221146EB480CF016FB0522A7
:103130000621E9480CF011FB05220721E6480CF0B6
:103140000CFBE020059002208DF8180000208DF87F
:103150001A0003208DF8190001208DF81B0005A925
:10316000DD480CF06FFA1020059001208DF8180052
:1031700000208DF81A0003208DF8190001208DF829
:103180001B0005A9D4480CF05DFA1021D2480CF0C0
:10319000D5FA012108030CF047FD00214FF48050BF
:1031A0000CF042FD0021CD480EF087FE0020ADF866
:1031B00000004FF48270ADF802000020ADF804006A
:1031C000ADF80600ADF808004FF40070ADF80A0045
:1031D0002020ADF80C000020ADF80E000720ADF85F
:1031E00010006946BD480EF085FD0121BB480EF078
:1031F00064FE07B000BD10B50446B84800884FF61D
:10320000C7710840B54908800846008820430880F7
:103210000121B2480EF051FE10BD00B587B001216A
:1032200002200CF055FC012188030CF084FC0522DF
:103230000C21AB480CF091FA05220D21A8480CF0A6
:103240008CFA05220E21A6480CF087FA05220F21E0
:10325000A3480CF082FA4FF47040059002208DF8DC
:10326000180000208DF81A0003208DF819000120A5
:103270008DF81B0005A99A480CF0E4F90121880398
:103280000CF0C1FC00214FF480400CF0BCFC00218C
:1032900094480EF012FE0020ADF80000ADF80200D8
:1032A000ADF80400ADF80600ADF80800ADF80A006E
:1032B0001020ADF80C000020ADF80E000720ADF88E
:1032C0001000694687480EF015FD012185480EF073
:1032D000F4FD07B000BD10B50446824800884FF6E3
:1032E000C77108407F49088008460088204308804D
:1032F00001217C480EF0E1FD10BD00B587B0012131
:1033000008460CF0E5FB012102200CF0E1FB012155
:1033100004200CF0DDFB0121C8030CF00CFC06229C
:1033200003216F480CF019FA062204216C480CF0B6
:1033300014FA06220C216C480CF00FFA4FF40040EE
:10334000059001208DF8180000208DF81A00032048
:103350008DF8190001208DF81B0005A95E480CF0BE
:1033600071F94FF48050059002208DF8180000206C
:103370008DF81A0003208DF8190001208DF81B002C
:1033800005A959480CF05EF91820059002208DF827
:10339000180000208DF81A0003208DF81900012074
:1033A0008DF81B0005A94E480CF04CF90121C8030B
:1033B0000CF029FC00214FF400400CF024FC00210B
:1033C0004A480EF07AFD0020ADF800004FF48270FC
:1033D000ADF802000020ADF80400ADF80600ADF82D
:1033E00008004FF40070ADF80A001020ADF80C0092
:1033F0000020ADF80E000720ADF8100069463B48EC
:103400000EF078FC012139480EF057FD07B000BDE1
:1034100010B50446354800884FF6C7710840334957
:103420000880084600882043088001212F480EF0BC
:1034300044FD10BD2DE9F04104460E46174698465E
:103440002648844204D1102123480CF079F90EE07B
:103450002448844204D1811421480CF071F906E01B
:103460002248844203D1C1131B480CF069F900259E
:1034700017E000BF022120460EF0D7FD0028F9D04A
:10348000715D20460EF09AFD00BF012120460EF02E
:10349000CCFD0028F9D020460EF08DFD7855681C33
:1034A000C5B24545E5DB0D48844204D110210A48E8
:1034B0000CF044F90EE00B48844204D18114084812
:1034C0000CF03CF906E00948844203D1C1130248DC
:1034D0000CF034F9BDE8F0810000024000300140FA
:1034E000000402400038004000080240003C004058
:1034F000FE4880ED050A7047FC4880ED020A7047DF
:10350000FA4880ED010A7047F84880ED040A7047D8
:10351000F64880ED030A7047F44880ED000A7047D2
:10352000F3490870704710B508F00AFD0446F148E9
:103530000078401CEF490870204608F005FD40F275
:103540002551ED480DF09DFC01287CD140F225511C
:10355000E9480DF0CDFCE8480DF0E7FBE7490870BD
:10356000E748007805286FD2DFE800F003153950EE
:103570005E00E24800780D2803D0E04800784F282C
:1035800005D1DF480078401CDD49087002E00020CA
:10359000DB49087086E0D94800780A2808D1002065
:1035A000D8490870D6480078401CD549087015E005
:1035B000D24800784B2803D0D0480078412806D163
:1035C0000120D14908700020CD49087006E0CB48A1
:1035D00000780D2802D00020C949087062E0C74871
:1035E0000078CA49C74A12788854C6480078401CF7
:1035F000C449087008460078182806DB00200870C7
:10360000BF480078401CBE4908704BE0BB480078BA
:103610000A2805D1BA480078401CB949087002E070
:103620000020B74908703DE0B44800780D2831D13A
:103630000120B5490870FFF773FFB448D0ED000AC8
:10364000B0EE600A01E02EE028E0FFF765FFAF482A
:10365000D0ED010AB0EE600AFFF75AFFAB48D0ED9B
:10366000020AB0EE600AFFF74FFFA848D0ED030A48
:10367000B0EE600AFFF744FFA448D0ED040AB0EEB4
:10368000600AFFF739FFA148D0ED050AB0EE600AE5
:10369000FFF72EFF00209A49087003E000209849A8
:1036A000087000BF37E0282193480DF021FC40F25C
:1036B000277191480DF01CFC40F226618E480DF0F8
:1036C00017FC40F225318C480DF012FC40F22441E9
:1036D00089480DF00DFC40F6460187480DF008FCC6
:1036E00040F66A1184480DF003FC602182480DF019
:1036F000FFFB4FF4587180480DF0FAFB4FF418713E
:103700007D480DF0F5FB4FF4B0717B480DF0F0FBF8
:1037100079480DF00AFB09F002F910BD38B5002414
:1037200041208DF8000054208DF801000D208DF807
:1037300002000A208DF803000020734908700EE093
:103740004DF6BF20FEF740FC002406E01DF80410F3
:1037500069480DF0D4FA601CC4B2042CF6DB6A4848
:1037600000780028ECD038BD61480078704710B56B
:10377000FFF7D4FF00BFFFF7F7FF0028FBD010BD15
:103780005A4890ED000A7047584890ED010A70477A
:10379000564890ED020A7047544890ED030A70476E
:1037A000524890ED040A7047504890ED050A704762
:1037B00010B52DED028B84B0B0EE408A002441207C
:1037C0008DF8080058208DF809000D208DF80E00A6
:1037D0000A208DF80F008DED018A0198CDF80A00BE
:1037E0000020494908700EE04DF6BF20FEF7ECFBC3
:1037F000002406E002A8015D3F480DF080FA601C3D
:10380000C4B2082CF6DB404800780028ECD004B0A5
:10381000BDEC028B10BD10B52DED028B84B0B0EE67
:10382000408A002441208DF8080059208DF80900B5
:103830000D208DF80E000A208DF80F008DED018A05
:103840000198CDF80A0000202F4908700EE04DF6CF
:10385000BF20FEF7B9FB002406E002A8015D264860
:103860000DF04DFA601CC4B2082CF6DB2648007837
:103870000028ECD004B0BDEC028B10BD10B52DEDCE
:10388000028B84B0B0EE408A00249FED210AB4EE92
:10389000C08AF1EE10FA06DD9FED1E0A38EE400AEE
:1038A000B0EE408A0CE09FED1C0AB4EEC08AF1EE47
:1038B00010FA05D29FED170A38EE000AB0EE408AE2
:1038C00000200290039041208DF808008DF8090037
:1038D0000D208DF80E000A208DF80F008DED018A65
:1038E0000198CDF80A000020074917E0142D0020A8
:1038F000C10000209914002000140140C8000020DD
:10390000C9000020CA000020C0000020FC2C0020BC
:10391000000034430000B443000034C308700EE0DC
:103920004DF6BF20FEF750FB002406E002A8015D23
:1039300007480DF0E4F9601CC4B2082CF6DB05481A
:1039400000780028ECD004B0BDEC028B10BD000064
:1039500000140140C00000202DE9F04790B0074658
:10396000884691469A460020009001A80EF093F8F0
:10397000FE49781A8F4237D009DCFD483844B0B18F
:10398000B0F5806F1CD0B0F5006F41D122E0B0F5EA
:10399000404F03D0B0F5444F3AD12FE001218805C4
:1039A0000CF096F8F34C4FF00065462633E0012109
:1039B00048050CF08DF8F04C4FF0006511262AE018
:1039C000012148050CF084F8EB4C483C4FF00065B1
:1039D0000E2620E0012148050CF07AF8E64C303C38
:1039E0004FF000650F2616E0012148050CF070F835
:1039F000E14C18344FF000652F260CE001218805BA
:103A00000CF066F8DB4C183C4FF02065452602E0D0
:103A100010B0BDE8F08700BF5046C84720460DF003
:103A20006FFF00BF20460EF094F80028FAD10195F0
:103A3000381D0290CDF80C804020049000200590A5
:103A400006904FF4806007900020089009900A903B
:103A50004FF400300B9000200C9001200D900020BE
:103A60000E900F9001A920460DF0ECFF012280215D
:103A700038460DF0D8F90122102120460EF0A9F8A1
:103A80008DF8006002208DF801008DF80200012001
:103A90008DF8030068460CF05EF900BFB8E710B57A
:103AA000B649B4480EF0B2F838B10021B1480EF072
:103AB00003F8B249AF480EF0D3F810BD10B5B049C5
:103AC000AD480EF0A3F838B10021AB480DF0F4FF7B
:103AD000AB49A9480EF0C4F810BD10B5A749A648D7
:103AE00018300EF093F848B10021A34818300DF0BB
:103AF000E3FFA249A04818300EF0B2F810BD10B58F
:103B00009F499C4818380EF081F848B10021994827
:103B100018380DF0D1FF9A49964818380EF0A0F8E1
:103B200010BD2DE9F05F81468B46924698460021F4
:103B30000C460D468D49A9EB0100894521D009DCD1
:103B40008B48484488B1B0F5806F11D0B0F5006F54
:103B500020D112E0B0F5404F03D0B0F5444F19D159
:103B600014E0844E4FF0205716E0834E854F13E04B
:103B7000814E483E4FF0C0570EE07F4E303E824FA0
:103B80000AE07D4E18364FF0205705E0794E183E7A
:103B90007C4F01E0BDE8F09F00BF53E0641C45F19D
:103BA00000056FF070410020091BA8414AD2442152
:103BB000764800680DF0A3F84D21744800680DF0B8
:103BC0009EF84121714800680DF099F843216F4833
:103BD00000680DF094F84F216C4800680DF08FF8E4
:103BE00055216A4800680DF08AF84E216748006840
:103BF0000DF085F85421654800680DF080F84521E6
:103C0000624800680DF07BF85221604800680DF0B2
:103C100076F852215D4800680DF071F84F215B483D
:103C200000680DF06CF85221584800680DF067F8F4
:103C30000D21564800680DF062F80A2153480068CB
:103C40000DF05DF830460DF05AFF0028A6D1394638
:103C500030460DF0AAFF002130460DF02DFFB8F8D8
:103C60000020594650460EF01BFA0024254653E02A
:103C7000641C45F100056FF070410020091BA8414C
:103C80004AD24421414800680DF039F84D213F489F
:103C900000680DF034F841213C4800680DF02FF821
:103CA0004E213A4800680DF02AF84F213748006845
:103CB0000DF025F85421354800680DF020F8442116
:103CC000324800680DF01BF84921304800680DF0BB
:103CD00016F853212D4800680DF011F841212B48AA
:103CE00000680DF00CF84221284800680DF007F834
:103CF0004C21264800680DF002F845212348006851
:103D00000CF0FDFF0D21214800680CF0F8FF0A219E
:103D10001E4800680CF0F3FF30460DF01AFF002833
:103D2000A6D1B8F8001030460DF0E7FE012130466C
:103D30000DF0C2FE0020A8F8000000BF2AE72DE920
:103D4000F0470746884616461C46DDE9089A0749AB
:103D5000781A8F422DD01BDC0548384408B3B0F5E3
:103D6000806F20D0B0F5006F29D11FE000500040D7
:103D700000BCFFBFB8640240A06002400080002881
:103D8000008020200000202020000020D000002003
:103D9000B0F5404F03D0B0F5444F10D10CE0FE4DCC
:103DA0000FE0FE4D0DE0FD4D483D0AE0FB4D303D7E
:103DB00007E0FA4D183504E0F74D183D01E0BDE885
:103DC000F08700BF2088504518DA2188481C2080E1
:103DD00006F8018028460DF0BCFE002851D1284687
:103DE0000DF08DFE00284CD12088C82849D92346E3
:103DF0004A4631463846FFF794FE42E04421E848FF
:103E000000680CF07CFF4D21E54800680CF077FF5E
:103E10004121E34800680CF072FF4F21E048006840
:103E20000CF06DFF5621DE4800680CF068FF45215C
:103E3000DB4800680CF063FF5221D94800680CF0A1
:103E40005EFF4621D64800680CF059FF4C21D4484B
:103E500000680CF054FF4F21D14800680CF04FFF70
:103E60005721CF4800680CF04AFF0D21CC4800686C
:103E70000CF045FF0A21CA4800680CF040FF002002
:103E8000208000BF9BE72DE9F04788B082460F46AF
:103E900090461C46109E12A8039073E0119800787B
:103EA0005C2824D11198401C119000786E280DD008
:103EB000722817D143463A460D215046CDE90046B7
:103EC000FFF73DFF1198401C11900FE043463A4622
:103ED0000A215046CDE90046FFF731FF1198401CFA
:103EE000119003E01198401C119000BF4AE0119816
:103EF000007825283BD11198401C11900078642847
:103F000015D073282ED1039820C8039008E0CDE97E
:103F10000046297843463A465046FFF710FF6D1C8D
:103F200028780028F3D11198401C11901EE00398C6
:103F300050F8049B03900A2204A94846FEF701FEAC
:103F400004AD08E0CDE90046297843463A4650469C
:103F5000FFF7F5FE6D1C28780028F3D11198401C5E
:103F6000119003E01198401C119000BF0AE0CDE9C8
:103F70000046119810F8011B43463A4611905046EE
:103F8000FFF7DDFE11980078002887D1039008B074
:103F9000BDE8F08700B591B00020019001218805AF
:103FA0000BF096FD7C4878380DF0AAFC00BF7A48EB
:103FB00078380DF0CEFD0028F9D14FF0C0600290A6
:103FC00078480390784804900020059039200690A6
:103FD000002007904FF480600890002009900A901C
:103FE0000B904FF480300C9000200D9003200E9029
:103FF00000200F90109002A9674878380DF022FD3C
:104000000122114667480C380DF0F6FF0121624885
:1040100078380DF051FD3A208DF8040001208DF81C
:10402000050002208DF8060001208DF8070001220E
:104030001021594878380DF0CCFD01A80BF08BFE0B
:1040400011B000BD00B591B000200190012188059C
:104050000BF03EFD504860380DF052FC00BF4E485A
:1040600060380DF076FD0028F9D14FF0C060029065
:104070004C4803904D48049040200590392006900C
:10408000002007904FF480600890002009900A906B
:104090000B904FF480300C9000200D9003200E9078
:1040A00000200F90109002A93B4860380DF0CAFC28
:1040B000012202213B480C380DF09EFF01213648B9
:1040C00060380DF0F9FC3B208DF8040001208DF8DC
:1040D000050002208DF8060001208DF8070001225E
:1040E00010212D4860380DF074FD01A80BF033FE4F
:1040F00011B000BD00B591B000200190012148052C
:104100000BF0E6FC254848380DF0FAFB00BF2348C9
:1041100048380DF01EFD0028F9D102902448039084
:104120002148049000200590392006900020079037
:104130004FF480600890002009900A900B904FF493
:1041400080300C9000200D9003200E9000200F90E6
:10415000109002A9114848380DF074FC0122114654
:1041600013480C380DF048FF01210C4848380DF079
:10417000A3FC0E208DF8040001208DF8050002201C
:104180008DF8060001208DF8070001221021034858
:1041900048380DF01EFD0DE0B8640240A0600240FA
:1041A000D00000200C300140F5350020BC35002047
:1041B0000C38004001A80BF0CEFD11B000BD00B5D9
:1041C00091B000200190012148050BF081FCF748D7
:1041D0000DF096FB00BFF5480DF0BBFC0028FAD1AE
:1041E0000290F3480390F348049040200590392052
:1041F0000690002007904FF48060089000200990FE
:104200000A900B904FF480300C9000200D9003200A
:104210000E9000200F90109002A9E4480DF012FCBF
:1042200001220221E2480C380DF0E6FE0121DF48B0
:104230000DF042FC0F208DF8040001208DF80500E0
:1042400002208DF8060001208DF8070001221021C0
:10425000D6480DF0BEFC01A80BF07DFD11B000BDED
:1042600000B591B000200190012148050BF030FC11
:10427000CE4830380DF044FB00BFCC4830380DF04C
:1042800068FC0028F9D10290CB480390CB480490F9
:104290000020059039200690002007904FF48060A0
:1042A0000890002009900A900B904FF480300C90F9
:1042B00000200D9003200E9000200F90109002A976
:1042C000BA4830380DF0BEFB01221146BA480C380E
:1042D0000DF092FE0121B54830380DF0EDFB0D20B8
:1042E0008DF8040001208DF8050002208DF80600ED
:1042F00001208DF8070001221021AC4830380DF064
:1043000068FC01A80BF027FD11B000BD00B591B00D
:1043100000200190012148050BF0DAFBA34818307A
:104320000DF0EEFA00BFA14818300DF012FC002885
:10433000F9D10290A04803909E4804904020059037
:1043400039200690002007904FF4806008900020EC
:1043500009900A900B904FF480300C9000200D9043
:1043600003200E9000200F90109002A98F48183063
:104370000DF068FB012202218F480C380DF03CFE45
:1043800001218A4818300DF097FB10208DF80400A9
:1043900001208DF8050002208DF8060001208DF81F
:1043A000070001221021814818300DF012FC01A8ED
:1043B0000BF0D1FC11B000BD10B581497B483038FD
:1043C0000DF024FC00B30021784830380DF074FB68
:1043D00001207C4908707A49744830380DF040FC5F
:1043E0007949724830380DF03BFC78496F483038D5
:1043F0000DF0DBFB76496D4830380DF031FC754926
:104400006A4830380DF0D1FB10BD10B572496748CD
:1044100018300DF0FBFB00B30021644818300DF09C
:104420004BFB01206D4908706B49604818300DF056
:1044300017FC6B495D4818300DF012FC69495B4868
:1044400018300DF0B2FB6849584818300DF008FCE0
:104450006649564818300DF0A8FB10BD10B56449E8
:10446000524818380DF0D2FB10B300214F481838CD
:104470000DF022FB0120534908705D494B48183864
:104480000DF0EEFB5B49494818380DF0E9FB4FF0A1
:10449000A051464818380DF088FB57494348183852
:1044A0000DF0DEFB4FF08251404818380DF07DFBD7
:1044B00010BD10B551493D480DF0A8FBE8B10021F1
:1044C0003A480DF0F9FA0120444908704B49374841
:1044D0000DF0C6FB4A4935480DF0C2FB434930395F
:1044E00032480DF062FB40493F3930480DF0B8FBCF
:1044F0003E493F392D480DF058FB10BD10B53049ED
:1045000040480DF083FBD0B100213E480DF0D4FAB5
:1045100001202C4908702A493A480DF0A1FB2A498C
:1045200038480DF09DFB294936480DF03EFB2849DF
:1045300034480DF095FB274932480DF036FB10BD8D
:1045400010B52B492F4818300DF060FB10B3002137
:104550002C4818300DF0B0FA012020490870244989
:10456000284818300DF07CFB2249264818300DF001
:1045700077FB4FF0A051234818300DF016FB1E4971
:10458000204818300DF06CFB4FF082511D48183058
:104590000DF00BFB10BD0B480078012804D1002062
:1045A00008490870012070470020FCE77060024055
:1045B0000C380040BC3500200C3C0040F535002094
:1045C00000802010CD0000200040101000001010CE
:1045D000000001900000011000880020CC000020A5
:1045E0000044002000040020400000A04000002003
:1045F000008000180040001400004090208000203F
:10460000104000204064024005480078012804D191
:10461000002003490870012070470020FCE70000DB
:10462000CC0000202DE9F04F87B005460E46174616
:104630001C464FF00108A2464FF0000906F54070F5
:1046400038440290002003908DF810008DF811007E
:1046500002208DF812008DF813808DF814A002A9A5
:1046600028460CF0E7FD834622E009F101001FFA1D
:1046700080F941F2707081451ADDFB4885420BD10B
:10468000FAA04FF4C871FE4BFE4ACDE90010FE4976
:10469000FE48FFF7F8FB0AE0FDA04FF4C871F84BA5
:1046A000F84ACDE90010F849F848FFF7ECFB05E0BF
:1046B000594628460CF056FE0128D6D100BF07B057
:1046C000BDE8F08F2DE9F04F87B0804689469246CD
:1046D0001C464FF0080B201E01DB014600E0414262
:1046E0000D460026EF48854200D3054609F5407087
:1046F00050440290002003908DF810008DF81100B6
:1047000004208DF812000BF0FF008DF813008DF8D7
:104710001450290A8DF81510002C03DB290C8DF894
:10472000161007E0002C05DAC5F3074040F08001C1
:104730008DF8161002A940460CF07CFD074620E0DB
:10474000701C86B241F2707086421ADDC648804500
:104750000BD1C6A04FF4C871C94BCA4ACDE90010AD
:10476000C949CA48FFF78FFB0AE0C9A04FF4C871D6
:10477000C34BC44ACDE90010C349C448FFF783FBCB
:1047800005E0394640460CF0EDFD0128D8D100BFC8
:1047900007B0BDE8F08F2DE9F04F87B0804689461D
:1047A00092461C464FF0090B201E01DB014600E03B
:1047B00041420D460026B5F5800F01D34FF4800528
:1047C00009F5407050440290002003908DF81000CD
:1047D0008DF8110004208DF812000BF0FF008DF809
:1047E00013008DF81450290A8DF81510002C03DBE6
:1047F000290C8DF8161007E0002C05DAC5F30740E8
:1048000040F080018DF8161002A940460CF012FD10
:10481000074620E0701C86B241F2707086421ADDB5
:10482000914880450BD191A04FF4C871944B954AA3
:10483000CDE9001094499548FFF725FB0AE094A0C4
:104840004FF4C8718E4B8F4ACDE900108E498F48C6
:10485000FFF719FB05E0394640460CF083FD0128BF
:10486000D8D100BF07B0BDE8F08F2DE9F04F89B077
:104870008046894692469B46129DCDF820B0281E60
:1048800001DB014600E041420C460026B4F5800FF2
:1048900001D34FF4800409F5407050440390002088
:1048A00004908DF814008DF8150004208DF8160082
:1048B0000898C0B28DF817008DF81840210A8DF8BD
:1048C0001910002D03DB210C8DF81A1007E0002DC4
:1048D00005DAC4F3074040F080018DF81A1003A9EF
:1048E00040460CF0A7FC074620E0701C86B241F25F
:1048F000707086421ADD5C4880450BD15BA04FF496
:10490000C8715F4B5F4ACDE900105F495F48FFF710
:10491000BAFA0AE05EA04FF4C871594B594ACDE982
:10492000001059495948FFF7AEFA05E039464046AC
:104930000CF018FD0128D8D100BF09B0BDE8F08FF8
:104940002DE9F04F87B006460F4690461C464FF0C3
:104950000C0925464FF0000A07F5407040440290CC
:10496000002003908DF810008DF8110004208DF8C0
:1049700012008DF813908DF81450290A8DF8151037
:10498000290C8DF8161002A930460CF053FC834612
:1049900022E00AF101001FFA80FA41F270708245AC
:1049A0001ADD314886420BD130A04FF4C871344B28
:1049B000344ACDE9001034493448FFF764FA0AE07C
:1049C00033A04FF4C8712E4B2E4ACDE900102E496A
:1049D0002E48FFF758FA05E0594630460CF0C2FC65
:1049E0000128D6D100BF07B0BDE8F08F2DE9F04F08
:1049F0008BB006460F4690469946DDF850B02A48DF
:104A000000680A90CDF82090CDF824B04FF0000A4D
:104A100000200CE008A951F82010B1F5800F04D94E
:104A20004FF4800108AA42F82010411CC8B20228A5
:104A3000F0DB002479E007F540704044039000204B
:104A400004908DF814008DF8150004208DF81600E0
:104A50000AA810F814008DF8170008A810F8241000
:104A60008DF8181022E000000064004043414E31F0
:104A70002073656E64206572726F7220212121009F
:104A8000BC2E0020CE0000202C2D00200010014064
:104A900043414E322073656E64206572726F7220DE
:104AA00021212100C05C1500D02E010830F824001F
:104AB000010A8DF8191008A850F82400010C8DF88F
:104AC0001A1003A930460CF0B5FB054624E00AF1A4
:104AD00001001FFA80FA41F2707082451CDDFE4829
:104AE00086420CD1AFF27C004FF4C871FB4BFC4AFC
:104AF000CDE90010FB49FC48FFF7C5F90BE0AFF228
:104B000070004FF4C871F54BF54ACDE90010F54936
:104B1000F548FFF7B8F905E0294630460CF022FCCD
:104B20000128D4D100BF601CC4B2022C83DB0BB0BF
:104B3000BDE8F08F2DE9F04F87B0074688469146D3
:104B40001D464FF00F0B2C464FF0000AE7488442F9
:104B500000D9044608F540704844029000200390B4
:104B60008DF810008DF8110004208DF812000BF064
:104B7000FF008DF813008DF81440210A8DF81510F0
:104B8000210C8DF8161002A938460CF053FB06468E
:104B900024E00AF101001FFA80FA41F270708245A8
:104BA0001CDDCD4887420CD1AFF240104FF4C871E4
:104BB000CA4BCB4ACDE90010CA49CB48FFF763F98D
:104BC0000BE0AFF234104FF4C871C44BC44ACDE9C6
:104BD0000010C449C448FFF756F905E0314638468D
:104BE0000CF0C0FB0128D4D100BF07B0BDE8F08FA6
:104BF0002DE9F04F87B00746884691461D464FF095
:104C0000100B2C464FF0000AB4F5800F01D94FF479
:104C1000800408F5407048440290002003908DF80D
:104C200010008DF8110004208DF812000BF0FF0029
:104C30008DF813008DF81440210A8DF81510210C01
:104C40008DF8161002A938460CF0F4FA064624E056
:104C50000AF101001FFA80FA41F2707082451CDDF2
:104C60009D4887420CD1AFF2FC104FF4C8719B4BAA
:104C70009B4ACDE900109B499B48FFF704F90BE0E4
:104C8000AFF2F4104FF4C871944B954ACDE900107F
:104C900094499548FFF7F7F805E0314638460CF09F
:104CA00061FB0128D4D100BF07B0BDE8F08F2DE92A
:104CB000F04F8DB006460F4690469946DDF858B045
:104CC0008B4800680C90CDF82890CDF82CB00020CF
:104CD000089009908246DDE90A10884201DD0A98B1
:104CE0000B900A98002801DB014600E04142089140
:104CF0000B98002801DB014600E0414209910020A9
:104D00000CE008A951F82010B1F5800F04D94FF438
:104D1000800108AA42F82010411CC8B20228F0DB2A
:104D200007F5407040440390002004908DF8140073
:104D30008DF8150004208DF8160000245CE00CA806
:104D400010F814008DF8170008A810F824108DF83A
:104D5000181030F82400010A8DF819100AA850F82C
:104D60002400002806DB08A850F82400010C8DF868
:104D70001A100DE00AA850F82400002808DA08A844
:104D800050F82400C0F3074040F080018DF81A105D
:104D900003A930460CF04EFA054624E00AF1010062
:104DA0001FFA80FA41F2707082451CDD4A48864243
:104DB0000CD1AFF248304FF4C871484B484ACDE9A6
:104DC000001048494848FFF75EF80BE0AFF240306A
:104DD0004FF4C871414B424ACDE900104149424865
:104DE000FFF751F805E0294630460CF0BBFA0128E0
:104DF000D4D100BF601CC4B2022CA0DB0DB0BDE852
:104E0000F08F2DE9F04F87B006460F4690461C46BE
:104E10004FF0020925464FF0000A07F54070404464
:104E20000290002003908DF810008DF811000420EE
:104E30008DF812008DF813908DF81450290A8DF812
:104E40001510290C8DF8161002A930460CF0F2F955
:104E5000834624E00AF101001FFA80FA41F27070E3
:104E600082451CDD1C4886420CD1AFF200404FF455
:104E7000C8711A4B1A4ACDE900101A491A48FFF7AF
:104E800002F80BE0AFF2F8304FF4C871134B144A3C
:104E9000CDE9001013491448FEF7F5FF05E0594627
:104EA00030460CF05FFA0128D4D100BF07B0BDE84E
:104EB000F08F2DE9F04F87B006460F4690461C460E
:104EC0004FF0030925464FF0000A07F540704044B3
:104ED0000290002003900DE000640040BC2E0020F2
:104EE000CE0000202C2D002000100140A0860100E3
:104EF000D42E01088DF810008DF8110004208DF8D3
:104F000012008DF813908DF81450290A8DF81510A1
:104F1000290C8DF8161002A930460CF08BF9834647
:104F200024E00AF101001FFA80FA41F27070824514
:104F30001CDDFE4886420CD1AFF2D0404FF4C87160
:104F4000FB4BFC4ACDE90010FB49FC48FEF79BFFF8
:104F50000BE0AFF2C4404FF4C871F54BF54ACDE910
:104F60000010F549F548FEF78EFF05E0594630463A
:104F70000CF0F8F90128D4D100BF07B0BDE8F08FDC
:104F80002DE9F04F87B006460F4690461C464FF07D
:104F9000040925464FF0000A07F54070404402908E
:104FA000002003908DF810008DF8110004208DF87A
:104FB00012008DF813908DF81450290A8DF81510F1
:104FC000290C8DF8161002A930460CF033F98346EF
:104FD00024E00AF101001FFA80FA41F27070824564
:104FE0001CDDD24886420CD1AFF280504FF4C8711C
:104FF000CF4BD04ACDE90010CF49D048FEF743FF50
:105000000BE0AFF274504FF4C871C94BC94ACDE9F7
:105010000010C949C948FEF736FF05E05946304639
:105020000CF0A0F90128D4D100BF07B0BDE8F08F83
:105030002DE9F04F87B006460F4690461C464FF0CC
:10504000050925464FF0000A07F5407040440290DC
:10505000002003908DF810008DF8110004208DF8C9
:1050600012008DF813908DF81450290A8DF8151040
:10507000290C8DF8161002A930460CF0DBF8834697
:1050800024E00AF101001FFA80FA41F270708245B3
:105090001CDDA64886420CD1AFF230604FF4C871D7
:1050A000A34BA44ACDE90010A349A448FEF7EBFEA8
:1050B0000BE0AFF224604FF4C8719D4B9D4ACDE9DF
:1050C00000109D499D48FEF7DEFE05E0594630463A
:1050D0000CF048F90128D4D100BF07B0BDE8F08F2B
:1050E0002DE9F04F87B006460F4690461C464FF01C
:1050F000060925464FF0000A07F54070404402902B
:10510000002003908DF810008DF8110004208DF818
:1051100012008DF813908DF81450290A8DF815108F
:10512000290C8DF8161002A930460CF083F883463E
:1051300024E00AF101001FFA80FA41F27070824502
:105140001CDD7A4886420CD1AFF2E0604FF4C871A2
:10515000774B784ACDE9001077497848FEF793FEFF
:105160000BE0AFF2D4604FF4C871714B714ACDE9D6
:10517000001071497148FEF786FE05E05946304639
:105180000CF0F0F80128D4D100BF07B0BDE8F08FD3
:105190002DE9F04F87B006460F4690461C464FF06B
:1051A000070925464FF0000A07F540704044029079
:1051B000002003908DF810008DF8110004208DF868
:1051C00012008DF813908DF81450290A8DF81510DF
:1051D000290C8DF8161002A930460CF02BF88346E6
:1051E00024E00AF101001FFA80FA41F27070824552
:1051F0001CDD4E4886420CD1AFF290704FF4C8715E
:105200004B4B4C4ACDE900104B494C48FEF73BFE56
:105210000BE0AFF284704FF4C871454B454ACDE9BD
:10522000001045494548FEF72EFE05E05946304638
:105230000CF098F80128D4D100BF07B0BDE8F08F7A
:105240002DE9F04F87B005460E4617461C464FF035
:105250001908A2464FF0000906F540703844029044
:10526000002003908DF810008DF8110002208DF8B9
:1052700012008DF813808DF814A002A928460BF0B7
:10528000D9FF834624E009F101001FFA80F941F2B9
:10529000707081451CDD254885420CD1AFF6340085
:1052A0004FF4C871224B234ACDE90010224923480C
:1052B000FEF7E9FD0BE0AFF628004FF4C8711C4B78
:1052C0001C4ACDE900101C491C48FEF7DCFD05E036
:1052D000594628460CF046F80128D4D100BF07B043
:1052E000BDE8F08F2DE9F04788B00746894615469E
:1052F0004FF01E0A2C464FF000081148844200D996
:10530000044609F540700390002004908DF81400C5
:105310008DF8150004208DF816000AF0FF008DF8B6
:1053200017008DF81840210A0CE0000000640040CE
:10533000BC2E0020CE0000202C2D002000100140AB
:10534000F04902008DF81910210C8DF81A1003A9EC
:1053500038460BF06FFF064624E008F101001FFA03
:1053600080F841F2707080451CDDFA4887420CD10C
:10537000AFF608104FF4C871F74BF84ACDE90010AA
:10538000F749F848FEF77FFD0BE0AFF6FC004FF45D
:10539000C871F14BF14ACDE90010F149F148FEF72F
:1053A00072FD05E0314638460BF0DCFF0128D4D110
:1053B00000BF08B0BDE8F0872DE9F04188B0044691
:1053C0000D461A26002705F5407003900020049032
:1053D0008DF814008DF8150001208DF816008DF859
:1053E000176003A920460BF025FF804622E0781CB9
:1053F00087B241F2707087421CDDD64884420CD1DE
:10540000AFF698104FF4C871D34BD44ACDE90010D1
:10541000D349D448FEF737FD0BE0AFF68C104FF4BC
:10542000C871CD4BCD4ACDE90010CD49CD48FEF72E
:105430002AFD05E0414620460BF094FF0128D6D115
:1054400000BF08B0BDE8F0812DE9F0478CB00646FA
:105450000F4690469946C44800680B90CDF82480CA
:10546000CDF82890002007900890824600BF17E0F2
:1054700009AA52F82010002901DB0A4600E04A423E
:1054800007AB43F8202007A951F82010B1F5800F91
:1054900004D94FF4800107AA42F82010411CC8B279
:1054A0000228E5DB002468E007F540700290002048
:1054B00003908DF810008DF8110004208DF8120073
:1054C0000BA810F814008DF8130007A810F824108A
:1054D0008DF8141030F82400010A8DF8151009A871
:1054E00050F82400002806DB07A850F82400010C1F
:1054F0008DF816100DE009A850F82400002808DAED
:1055000007A850F82400C0F3074040F080018DF850
:10551000161002A930460BF08DFE054624E00AF174
:1055200001001FFA80FA41F2707082451CDD894843
:1055300086420CD1AFF6CC204FF4C871864B874A17
:10554000CDE9001086498748FEF79DFC0BE0AFF6D9
:10555000C0204FF4C871804B804ACDE900108049CB
:105560008048FEF790FC05E0294630460BF0FAFE35
:105570000128D4D100BF601CC4B2022C94DB0CB053
:10558000BDE8F0872DE9F04387B004460D46164686
:105590004FF060084FF00009002705F540703044D7
:1055A0000290002003908DF810008DF8110001206A
:1055B0008DF812008DF8138002A920460BF03AFEF8
:1055C000814622E0781C87B241F2707087421CDD70
:1055D000604884420CD1AFF66C304FF4C8715E4B1A
:1055E0005E4ACDE900105E495E48FEF74CFC0BE0D8
:1055F000AFF664304FF4C871574B584ACDE90010EC
:1056000057495848FEF73FFC05E0494620460BF055
:10561000A9FE0128D6D100BF07B0BDE8F0832DE96F
:10562000F04387B004460D4616464FF061084FF030
:105630000009002705F540703044029000200390D7
:105640008DF810008DF8110001208DF812008DF8F2
:10565000138002A920460BF0EDFD814622E0781C64
:1056600087B241F2707087421CDD3A4884420CD107
:10567000AFF608404FF4C871374B384ACDE90010F7
:1056800037493848FEF7FFFB0BE0AFF6FC304FF42C
:10569000C871314B314ACDE9001031493148FEF72C
:1056A000F2FB05E0494620460BF05CFE0128D6D10E
:1056B00000BF07B0BDE8F0832DE9F04387B0044692
:1056C0000D4616464FF068084FF00009002705F513
:1056D000407030440290002003908DF810008DF847
:1056E000110001208DF812008DF8138002A92046C8
:1056F0000BF0A0FD814622E0781C87B241F2707069
:1057000087421CDD134884420CD1AFF6A0404FF411
:10571000C871114B114ACDE9001011491148FEF72B
:10572000B2FB0BE0AFF698404FF4C8710A4B0B4A3E
:10573000CDE900100A490B48FEF7A5FB05E04946F4
:1057400020460BF00FFE0128D6D100BF07B0BDE800
:10575000F083000000640040BC2E0020CE0000203A
:105760002C2D002000100140D82E01082DE9F04317
:1057700087B004460D4616464FF062084FF0000908
:10578000002705F5407030440290002003908DF80A
:1057900010008DF8110001208DF812008DF8138093
:1057A00002A920460BF046FD814622E0781C87B214
:1057B00041F2707087421CDDF94884420CD1AFF68B
:1057C00054504FF4C871F74BF74ACDE90010F74930
:1057D000F748FEF758FB0BE0AFF64C504FF4C8719A
:1057E000F04BF14ACDE90010F049F148FEF74BFBD0
:1057F00005E0494620460BF0B5FD0128D6D100BF93
:1058000007B0BDE8F0832DE9F04387B004460D46AC
:1058100016464FF069084FF00009002705F5407063
:1058200030440290002003908DF810008DF8110094
:1058300001208DF812008DF8138002A920460BF08C
:10584000F9FC814622E0781C87B241F270708742F1
:105850001CDDD34884420CD1AFF6F0504FF4C87130
:10586000D04BD14ACDE90010D049D148FEF70BFB0F
:105870000BE0AFF6E4504FF4C871CA4BCA4ACDE909
:105880000010CA49CA48FEF7FEFA05E0494620461C
:105890000BF068FD0128D6D100BF07B0BDE8F0834A
:1058A0002DE9F04387B004460D4616464FF06308D5
:1058B0004FF00009002705F54070304402900020A9
:1058C00003908DF810008DF8110001208DF8120062
:1058D0008DF8138002A920460BF0ACFC814622E033
:1058E000781C87B241F2707087421CDDAC4884425C
:1058F0000CD1AFF688604FF4C871AA4BAA4ACDE923
:105900000010AA49AA48FEF7BEFA0BE0AFF6806085
:105910004FF4C871A34BA44ACDE90010A349A44891
:10592000FEF7B1FA05E0494620460BF01BFD0128C1
:10593000D6D100BF07B0BDE8F0832DE9F04387B0B2
:1059400004460D4616464FF066084FF00009002742
:1059500005F5407030440290002003908DF810004F
:105960008DF8110001208DF812008DF8138002A926
:1059700020460BF05FFC814622E0781C87B241F2A2
:10598000707087421CDD864884420CD1AFF62470CB
:105990004FF4C871834B844ACDE900108349844891
:1059A000FEF771FA0BE0AFF618704FF4C8717D4B3B
:1059B0007D4ACDE900107D497D48FEF764FA05E097
:1059C000494620460BF0CEFC0128D6D100BF07B0D7
:1059D000BDE8F0832DE9F04387B004460D46164636
:1059E0004FF067084FF00009002705F5407030447C
:1059F0000290002003908DF810008DF81100012016
:105A00008DF812008DF8138002A920460BF012FCCD
:105A1000814622E0781C87B241F2707087421CDD1B
:105A20005F4884420CD1AFF6BC704FF4C8715D4B37
:105A30005D4ACDE900105D495D48FEF724FA0BE0B0
:105A4000AFF6B4704FF4C871564B574ACDE9001009
:105A500056495748FEF717FA05E0494620460BF02D
:105A600081FC0128D6D100BF07B0BDE8F0832DE945
:105A7000F04387B004460D4616464FF064084FF0D9
:105A80000009002705F54070304402900020039083
:105A90008DF810008DF8110001208DF812008DF89E
:105AA000138002A920460BF0C5FB814621E0781C3B
:105AB00087B241F2707087421BDD394884420BD1B6
:105AC0003C484FF4C871374B374ACDE9001037498D
:105AD0003748FEF7D8F90BE0364824304FF4C87148
